:020000040800F2
:1000000000100020A10F0008F10F0008F10F0008F8
:1000100000000000000000000000000000000000E0
:10002000000000000000000000000000F10F0008C8
:100030000000000000000000F10F00086902000845
:10004000F10F000800000000F10F0008F10F000898
:10005000F10F0008F10F0008F10F0008F10F000880
:1000600000000000E903000805040008310400084E
:10007000F10F0008F10F0008330400080000000031
:1000800035040008000000000000000037040008EC
:1000900000000000390400083B040008F10F0008CC
:1000A00000000000F10F0008000000003D040008FF
:1000B0000000000000000000000000000000000040
:1000C00010B5064C2378002B07D1054B002B02D02E
:1000D000044800E000BF0123237010BD0000002091
:1000E000000000004C100008044B10B5002B03D09A
:1000F0000349044800E000BF10BDC04600000000F6
:10010000040000204C10000802B471464908490060
:10011000095C49008E4402BC7047C0460022430877
:100120008B4274D303098B425FD3030A8B4244D3BF
:10013000030B8B4228D3030C8B420DD3FF22090201
:1001400012BA030C8B4202D31212090265D0030BC0
:100150008B4219D300E0090AC30B8B4201D3CB03B6
:10016000C01A5241830B8B4201D38B03C01A5241F8
:10017000430B8B4201D34B03C01A5241030B8B42FA
:1001800001D30B03C01A5241C30A8B4201D3CB02E5
:10019000C01A5241830A8B4201D38B02C01A5241CA
:1001A000430A8B4201D34B02C01A5241030A8B42CD
:1001B00001D30B02C01A5241CDD2C3098B4201D3E5
:1001C000CB01C01A524183098B4201D38B01C01A63
:1001D000524143098B4201D34B01C01A52410309DA
:1001E0008B4201D30B01C01A5241C3088B4201D389
:1001F000CB00C01A524183088B4201D38B00C01A36
:10020000524143088B4201D34B00C01A5241411A5C
:1002100000D20146524110467047FFE701B5002069
:1002200000F006F802BDC0460029F7D076E7704717
:100230007047C0461F2318401E3B8340014A13608D
:100240007047C04600E100E0C3690133C3617047F5
:1002500010B50400002C05D0236820001B689847C7
:100260006468F7E710BD0000054B10B51C68002C52
:1002700005D0236820001B689847A468F7E710BDE5
:1002800088020020037B002B0DD0002342680373FB
:100290008368002A0ED0002B08D0936083685A60D0
:1002A00000234360836070470B60F8E70449936064
:1002B0004A60F5E70249002BF6D10B604B60EFE78F
:1002C00088020020037B002B0CD101330373064B03
:1002D0005A684260002A00D090601A685860002A6C
:1002E00000D118607047C0468802002010B58068B1
:1002F0000369FC33DA69D269D2060ED50021FF24E6
:100300005A6A5268596092B2A11AA14200D92100DA
:100310009960FF2A01D0FFF7D5FF10BD036842683E
:10032000012090401B691840431E9841C0B270479D
:1003300010B5426804680123002903D093400800E7
:10034000A36110BD1032F9E71C4B10B55B680400C7
:100350005B055B0F13D0042B13D0052B13D0063B8A
:100360005A425341164A5B4213409B18072912D840
:100370000800FFF7C9FE0A121417191C1E21114BA1
:10038000F4E7114BF2E7114BF0E7962189011800D1
:10039000FFF7C4FEE060200010BDE121F6E79621E2
:1003A000C901F4E7E121FBE796210902EFE7E1212A
:1003B000FBE796214902EAE7E121FBE70010024052
:1003C000C0C62D00006CDC0200366E01001BB700B9
:1003D0000123C9B2890003398B4000681840431ECD
:1003E0009841C0B270470000044B10B51868FFF781
:1003F0002FFF0122024B5A6010BDC0465802002058
:1004000000000240074B10B51868FFF721FF1023CA
:10041000054C6360054B1868FFF71AFF80235B00EB
:10042000636010BD600200200000024068020020EE
:10043000FEE7FEE7FEE7FEE7FEE7FEE7044B10B54A
:100440001868FFF705FF0122024B52421A6210BDE5
:1004500080020020003801408022164B52021968A9
:100460000A431A601A689203FCD5F0215A688A433D
:100470005A605A6810490A4003215A605A688A43F0
:10048000110002220A435A605A680C491140802226
:1004900052030A435A608022596852020A435A6042
:1004A0008022196852040A431A601A689201FCD526
:1004B0007047C04600100240FFF8FFFFFFFFC3FF78
:1004C000F8B50123674C684F22681A426BD1674A1E
:1004D00067481168194205D19021C90501600221C0
:1004E00013604160802330217A699B0213437B6152
:1004F00003681A688A43110020220A431A601A6AA4
:100500005C491140802252000A431A6201225A4B70
:100510005A491D68154205D19025ED050D6003254A
:100520001A604D608023C0257A699B0213437B616A
:100530000B681A68AA43150080222A431A601A6AB7
:100540004F4D1540802252012A431A6201234D4D1E
:100550004D4A2E681E4203D14C4E536016602B60EC
:1005600080237D69DB022B430C257B611668336891
:10057000AB431D0004232B433360454B0025FC3364
:100580005A61444A5D609A61434A9D60DA61434A18
:10059000D8601A62424A19615A6206229A62043A83
:1005A000DA62012323608023394EBA693400DB010B
:1005B00013430822BB61FC34E369802519680420D9
:1005C0000A431A60042219680A431A609A682A4387
:1005D0009A60402299680A439A60324B1856FFF796
:1005E00029FE01237A69304913437B611027236A6E
:1005F0002E481A683A431A6062689219DA60E26912
:1006000028329A601A682A431A601A680A401A60E7
:100610001A6802401A600222042019680A431A600C
:10062000234B1856FFF706FE636A1F491A681F48D6
:10063000BA431A6062689219DA60E26924329A60F9
:10064000FF225A601A6815431D601A680A401A6032
:100650001A6802401A602022196830000A431A60A2
:10066000F8BDC0467C00002000100240C4010020FC
:10067000C8010020FFF0FFFFB8010020BC010020EE
:10068000FF0FFFFFAC010020B00100200004004874
:100690008000002000000240003801401C000240A1
:1006A0003000024080020020FFF3FFFFFFFCFFFF4D
:1006B00060020020002310B5FC3043608360436972
:1006C00006CB01231C00103294408C61016A0A6839
:1006D0009A430A60426A116899431160FF21516090
:1006E000426A11680B4313601368DB07FCD51023C3
:1006F000C26911680B43136010BD10B5846823698B
:10070000FC33D96A9869FFF763FE002802D020699C
:10071000FFF7D0FF10BD0000FF23F0B51D00064F0E
:10072000064E0C7801315C403B5D6B40355D8A4282
:10073000F7D105704370F0BD641000086411000823
:10074000020010B5FC325368946800219C4202D923
:10075000591C5160C15C080010BD0300FC339A684D
:10076000FE2A03D881549A6801329A60704770B5A6
:100770000C000500090AFFF7F0FFE1B2FFF7EDFFFB
:10078000280070BD012210B51400FC3043691968BF
:100790005B689C408C611024C1690B68A3430B60AB
:1007A000416A0B6893430B60016A0B6893430B60CB
:1007B00083684468016A1B1B02339BB24B60036A67
:1007C00019680A431A601A68D207FCD510BD0022C6
:1007D000036973B5FC335A609A6004000D00431D31
:1007E000861D012921D1D97F0069FFF7B6FF80233B
:1007F000F17F1943FFF7B1FF2900FFF7AEFF216931
:1008000001AD0B00FC339A685B688A182800C91890
:10081000FFF782FF69782069FFF79FFF2978FFF7CC
:100820009CFF2069FFF7AEFF73BD0069D97F022DE1
:1008300003D1FFF792FFF17FDCE7FFF78EFFF17F37
:10084000FFF78BFF0321D8E7020070B5FC32536835
:100850009268013304000D009A420BD9FFF770FF34
:1008600006002000FFF76CFF3602C0B2304328803C
:10087000200070BD00230B80FAE700000121F0B5D5
:10088000D24A89B01368D24F0B4003D1D1487B6064
:10089000386011608022D04BD20259690A4303218B
:1008A0005A61386802688A4302390A430260CB4AB7
:1008B0001068084206D19020C94CC005206007206E
:1008C000116060608022596992020A435A61C44AE9
:1008D000C4491068026811408022D2010A430121F4
:1008E0000260C14A1068084206D19020BF4CC00582
:1008F00020600620116060608022596992020A43DC
:100900005A61BA4ABA4D10688022016852012940E2
:100910000A4302600120B749B74A0C68044205D176
:100920009024E4051460052408605460802158690F
:100930008902014359611068B04902681140802260
:10094000D2000A4301210260AD4A1068084206D174
:100950009020AC4CC00520600920116060608022AE
:10096000596992020A435A61A64AA74811680A685F
:10097000024001200A60A549A54A0C68044205D13D
:100980009024E405146008240860546080215869AC
:1009900089020143596111689E480A68024001209A
:1009A0000A609D499D4A0C68044204D1894C086044
:1009B00014600F24546080215869C902014301204A
:1009C000596111680A68920092080A609449954A30
:1009D0000C68044204D17F4C086014600E245460FB
:1009E000802101265869C9020143596112688E4964
:1009F000136806A80B4013600021062200F01EFBBE
:100A0000FFF75EFD894B8A4C1B6833405AD1206149
:100A1000601DC67720002C306360A3602373854A75
:100A2000E3612362E3842385638503702386E363A4
:100A3000814B8249083208332260A363804A0B68E5
:100A40006161A2612464002B03D17E4B0B6005E041
:100A50000B0059680029FBD17A4959600021744B79
:100A600099647949DB64083159641368002B03D118
:100A7000764B136005E013005A68002AFBD1734AD5
:100A80005A6020000A220021503000F0D7FA2000DE
:100A90000A2200215A3000F0D1FA20000A22002157
:100AA000643000F0CBFA20000A2200216E3000F002
:100AB000C5FA200005227830002100F0BFFA01229B
:100AC0005A4B1A600423236223690021FC339A6A7B
:100AD000D869FFF739FC5E4A036813400360036876
:100AE0005C4A1340036043685B4A1D404560012532
:100AF00003681340036003682B4303602069FFF71A
:100B0000D9FD230007225A331A80230000225C33C8
:100B10001A80230006AA52885E3360341A8025802A
:100B20000195434D2A69FC329168536A52685B68AB
:100B30008A1AFF219BB2CB1A9A4233D20023280093
:100B4000EB61FFF79FFB2F48FFF7E8FB384C019B59
:100B500062340340019A20789043184320702C4857
:100B6000FFF7DCFB0222019B1840430020789043F2
:100B7000184320702948FFF7D1FB0422019B18403D
:100B8000830020789043184320702648FFF7C6FB67
:100B90000822019B1840C30020789043184320701E
:100BA00030BFBEE7EB692A6A9342CCDB0024280001
:100BB000EC61FFF767FB28690200FC32936851681B
:100BC0005E1A072E4AD8FFF775FDBCE770000020BB
:100BD000740000200004004800100240640000205F
:100BE00068000020FF3FFFFF580000205C0000204D
:100BF000FFCFFFFF4C00002050000020FFF3FFFF5D
:100C00004000002044000020FFFFF3FF34000020DC
:100C100038000020FFFFFCFF280000202C000020EF
:100C20001C00002020000020FFFFFFCFD00100208B
:100C3000D4010020641200087C1200088002002009
:100C4000600200200C020020701200081802002030
:100C5000FFFDFFFFFFEFFFFFFFFBFFFF465CB4461A
:100C6000A74EF67FB445AED103948B4203D9013B26
:100C70009360C35C039302000024FC3293680294E7
:100C8000994203D2013B9360C35C02930300FC339F
:100C90009A6805AE821841183000FFF73DFD3378A1
:100CA000039A984C934227D17378029A2069934211
:100CB00022D1FFF745FD2069FFF742FDA31D060085
:100CC000D877032850D125008F492069FFF7BCFD54
:100CD0008E492069FFF7B8FD628DE38C2C35D3185F
:100CE000013B9BB2520023852A70042B06D90221B6
:100CF0002000FFF76CFD26E7206964E720690022E9
:100D00000300FC335A609A600534E17FFFF725FD4C
:100D10003100FFF722FD2978FFF71FFD794C638D25
:100D200020695A1E6285002B09D0E38C5A1C2C3393
:100D30005B00E284E4186188FFF719FDEEE7030029
:100D4000FC339A68596805AD821841182800FFF7EE
:100D5000E3FC69782069FFF700FD2978FFF7FDFCC7
:100D60002069FFF70FFDEEE601991028C0D1664912
:100D70002069FFF769FD65492069FFF765FD2100DE
:100D8000628DE38C2C31D318013B9BB2520023853A
:100D90000A70042BABD820690200FC3253689468B7
:100DA0009C422ED95C1C5460C35C00260B70554CD1
:100DB000638DB3423CD956492069FFF745FDE38C6A
:100DC0009B191900E218783210783031E28D002832
:100DD00019D010B2844649006418A18808B284452D
:100DE00001DA00290AD118004649343040000818B9
:100DF000C08804B2A44515DD002813D00321414862
:100E000077E70023D1E749006418A1888A4201D21C
:100E10000029F3D118003B49343040000818C0883D
:100E20008242E9D828335B000136CA52B6B2BEE727
:100E30000026344C638DB34244D9E08C301880B224
:100E4000042809D8FFF760F9030B0F1723002300CC
:100E50005E3450331B8823800136B6B2E9E72300A5
:100E600060345233F6E754342388D03B5A4253411E
:100E7000284A1370F0E7274B1A78002A04D0220082
:100E8000563212885C342280019A1A70E4E72C00F2
:100E9000583421783800C907C90FFFF749FA21787B
:100EA0001D488907C90FFFF743FA21781B484907F6
:100EB000C90FFFF73DFA217819480907C90FFFF755
:100EC00037FAC9E7002223692069FC335A609A6027
:100ED000631DD97FFFF741FCA31DD97FFFF73DFCC0
:100EE000E18CFFF744FC618DFFF741FC216905AD02
:100EF0000B00FC339A685B688A18C91826E7C0465D
:100F0000D9010020D4010020FA010020FE010020B8
:100F10000202002054020020680000205C00002033
:100F2000500000200023154A154913605360154AEC
:100F30005160042193601068014311600221106820
:100F40000143116001211068014311601B210E4A09
:100F5000117113600D4A1239117113600C4A01317D
:100F6000117113600B4A117113600B4A0131136048
:100F700011710A4A136011717047C046880200203F
:100F80007FBB000010E000E080020020580200203B
:100F90006002002068020020700200207802002019
:100FA0000D4885460D480E490E4A002302E0D458EC
:100FB000C4500433C4188C42F9D30B4A0B4C0023A1
:100FC00001E013600432A242FBD3FFF745FA00F0C0
:100FD00011F8FFF753FCFEE700100020000000208E
:100FE0000000002094120008000000209002002061
:100FF000FEE7000070B500260C4D0D4C641BA410DC
:10100000A64209D1002600F021F80A4D0A4C641BC3
:10101000A410A64205D170BDB300EB589847013625
:10102000EEE7B300EB5898470136F2E78812000864
:101030008812000888120008901200080300121895
:10104000934200D1704719700133F9E7F8B5C046F3
:10105000F8BC08BC9E467047F8B5C046F8BC08BC52
:041060009E467047F1
:1010640000C1814001C0804101C0804100C1814074
:1010740001C0804100C1814000C1814001C0804164
:1010840001C0804100C1814000C1814001C0804154
:1010940000C1814001C0804101C0804100C1814044
:1010A40001C0804100C1814000C1814001C0804134
:1010B40000C1814001C0804101C0804100C1814024
:1010C40000C1814001C0804101C0804100C1814014
:1010D40001C0804100C1814000C1814001C0804104
:1010E40001C0804100C1814000C1814001C08041F4
:1010F40000C1814001C0804101C0804100C18140E4
:1011040000C1814001C0804101C0804100C18140D3
:1011140001C0804100C1814000C1814001C08041C3
:1011240000C1814001C0804101C0804100C18140B3
:1011340001C0804100C1814000C1814001C08041A3
:1011440001C0804100C1814000C1814001C0804193
:1011540000C1814001C0804101C0804100C1814083
:1011640000C0C101C30302C2C60607C705C5C40443
:10117400CC0C0DCD0FCFCE0E0ACACB0BC90908C8B3
:10118400D81819D91BDBDA1A1EDEDF1FDD1D1CDCA3
:1011940014D4D515D71716D6D21213D311D1D01013
:1011A400F03031F133F3F23236F6F737F53534F403
:1011B4003CFCFD3DFF3F3EFEFA3A3BFB39F9F83873
:1011C40028E8E929EB2B2AEAEE2E2FEF2DEDEC2C63
:1011D400E42425E527E7E62622E2E323E12120E0D3
:1011E400A06061A163A3A26266A6A767A56564A4C3
:1011F4006CACAD6DAF6F6EAEAA6A6BAB69A9A86833
:1012040078B8B979BB7B7ABABE7E7FBF7DBDBC7C22
:10121400B47475B577B7B67672B2B373B17170B092
:101224005090915193535292965657975595945482
:101234009C5C5D9D5F9F9E5E5A9A9B5B99595898F2
:10124400884849894B8B8A4A4E8E8F4F8D4D4C8CE2
:101254004484854587474686824243834181804052
:101264000000000000000000490200080000000027
:1012740000000000FB060008000000000000000061
:04128400ED0200086F
:08128800E9000008250F000831
:04129000C100000891
:0400000508000FA13F
:00000001FF
