:020000040800F2
:100000000010002079370008C9370008C9370008F8
:1000100000000000000000000000000000000000E0
:10002000000000000000000000000000C9370008C8
:100030000000000000000000C93700083D0600086D
:10004000C937000800000000C9370008C937000898
:10005000C9370008C9370008C9370008C937000880
:1000600000000000850E0008A90E0008E90E000837
:10007000C9370008C9370008EF0E0008000000006B
:10008000F50E00080000000000000000FB0E000854
:1000900000000000010F0008070F0008C937000822
:1000A00000000000C9370008000000000D0F000824
:1000B0000000000000000000000000000000000040
:1000C00010B5064C2378002B07D1054B002B02D02E
:1000D000044800E000BF0123237010BD6C00002025
:1000E0000000000008390008044B10B5002B03D0B5
:1000F0000349044800E000BF10BDC04600000000F6
:100100007000002008390008002243088B4274D395
:1001100003098B425FD3030A8B4244D3030B8B4208
:1001200028D3030C8B420DD3FF22090212BA030C11
:100130008B4202D31212090265D0030B8B4219D3F2
:1001400000E0090AC30B8B4201D3CB03C01A524112
:10015000830B8B4201D38B03C01A5241430B8B425A
:1001600001D34B03C01A5241030B8B4201D30B0343
:10017000C01A5241C30A8B4201D3CB02C01A52416A
:10018000830A8B4201D38B02C01A5241430A8B422D
:1001900001D34B02C01A5241030A8B4201D30B0216
:1001A000C01A5241CDD2C3098B4201D3CB01C01A30
:1001B000524183098B4201D38B01C01A524143093A
:1001C0008B4201D34B01C01A524103098B4201D328
:1001D0000B01C01A5241C3088B4201D3CB00C01A95
:1001E000524183088B4201D38B00C01A524143080D
:1001F0008B4201D34B00C01A5241411A00D2014632
:10020000524110467047FFE701B5002000F006F8A4
:1002100002BDC0460029F7D076E770477047C04658
:1002200080B582B000AF0200FB1D1A70FB1D1B7869
:100230005BB21F221A40044B012191400A001A6050
:10024000C046BD4602B080BD00E100E080B582B08E
:1002500000AF78600A00FB1C1A70FB1C1B780F2291
:100260001340DAB27B680F210A4012015968F0206E
:1002700081430A435A607B681800BD4602B080BDC6
:1002800080B582B000AF78600A00FB1C1A70FB1CBE
:100290001B7807221340DAB27B6807210A4012025A
:1002A0005968044801400A435A607B681800BD46FB
:1002B00002B080BDFFF8FFFF80B582B000AF78606C
:1002C0000A00FB1C1A70FB1C1B7803221340DAB2D5
:1002D0007B6803210A405968032081430A435A601E
:1002E0007B681800BD4602B080BD000080B582B0BA
:1002F00000AF78600A00FB1C1A70FB1C1B780122FF
:100300001340DAB27B6801210A401204596804489C
:1003100001400A435A607B681800BD4602B080BDA8
:10032000FFFFFEFF80B582B000AF78600A00FB1CC3
:100330001A70FB1C1B780F221340DAB27B680F2166
:100340000A4092045968044801400A435A607B6895
:100350001800BD4602B080BDFFFFC3FF80B582B06C
:1003600000AF78607B681A68802149020A431A60EE
:100370007B681800BD4602B080BD80B582B000AF7A
:1003800078607B681B689B03DB0FDBB20122534064
:10039000DBB2002B00D0F4E77B681800BD4602B04A
:1003A00080BD80B582B000AF78607B681A6880211C
:1003B00049040A431A607B681800BD4602B080BD3C
:1003C00080B582B000AF78607B681B689B01DB0F53
:1003D000DBB201225340DBB2002B00D0F4E77B6894
:1003E0001800BD4602B080BD80B584B000AF786013
:1003F0007B685B685B055B0FDAB20F217B181A70B4
:100400007B181B78002B16D00F23FB181B78042BAE
:100410000FD00F23FB181B78052B08D00F23FB18D8
:100420001B78062B01D1064B06E0064B04E0064B79
:1004300002E0064B00E0064B1800BD4604B080BD4C
:10044000808D5B00C0C62D00001BB70000366E011A
:10045000006CDC0280B582B000AF786039607B68E8
:100460001800FFF7C1FF03001800BD4602B080BDB1
:1004700080B582B000AF786039603B681800BD4637
:1004800002B080BD80B582B000AF786039603B6853
:100490001A687B681B689A4201D23B6800E07B685F
:1004A0001800BD4602B080BD80B582B000AF786054
:1004B00039607B683A681100180001F0A0F9C04665
:1004C000BD4602B080BD80B582B000AF78603960B3
:1004D0007B683A681100180001F0B0F9C046BD46CB
:1004E00002B080BD90B587B000AF78607B687B615B
:1004F0007B69180001F0F2F90300FB607B691800CA
:1005000001F009FA0300BB600823FA180C23FB185A
:100510001100180001F00FFA031E11D00C243B1932
:10052000180001F027FA03003B613B691B681B6858
:100530003A69100098473B19180001F00DFAE3E7FB
:10054000C046BD4607B090BD80B582B000AF7860B0
:1005500039607B683A685A60C046BD4602B080BDCB
:1005600080B582B000AF78607B6800229A60C04698
:10057000BD4602B080BD80B582B000AF78600A0091
:10058000FB1C1A70FB1C1B7801221340DAB27B683B
:1005900001210A4092001968042081430A431A602D
:1005A000C046BD4602B080BD80B582B000AF786065
:1005B0007B681A6802210A431A60C046BD4602B031
:1005C00080BD80B582B000AF78607B681A68012179
:1005D0000A431A60C046BD4602B080BD80B582B0F5
:1005E00000AF78607B6800221A607B6800225A6046
:1005F0007B681800BD4602B080BD80B582B000AFF8
:1006000078607B681800FFF7E9FF7B681800BD463B
:1006100002B080BD80B582B000AF78607B68180002
:10062000FFF7EBFF01F0B0F90300180001F0B4F997
:100630007B681800BD4602B080BD000080B500AFE9
:10064000034B1800FFF74EFFC046BD4680BDC046B5
:100650008800002080B582B000AF78607B680022FF
:100660001A607B6800225A607B681800BD4602B0A1
:1006700080BD000080B582B000AF78607B68043335
:100680001800FFF7E7FF044A7B681A607B681800D0
:10069000BD4602B080BDC046983B000880B582B020
:1006A00000AF78607B681800FFF7E4FF054A7B68BD
:1006B0001A607B6800221A737B681800BD4602B07E
:1006C00080BDC0468C3B000880B582B000AF78602A
:1006D0007B681B7B002B08D07B6800221A737A682A
:1006E000044B11001800FFF7EEFEC046BD4602B0F5
:1006F00080BDC0468800002080B582B000AF786021
:100700007B681B7B01225340DBB2002B08D07B6847
:1007100001221A737A68044B11001800FFF7C4FE17
:10072000C046BD4602B080BD8800002080B582B0C2
:1007300000AF7860396001223B689A4013001A00CC
:100740007B689A61C046BD4602B080BD80B582B06C
:1007500000AF786039603B68103301229A40130083
:100760001A007B689A61C046BD4602B080BD80B564
:1007700082B000AF786039607B681B6901213A68FC
:1007800091400A0013405A1E9341DBB21800BD4647
:1007900002B080BD80B584B000AFF860B9607A6007
:1007A000FB68BA681A60FB687A685A60FB681800D0
:1007B000BD4604B080BD80B582B000AF78607B6874
:1007C0001A687B685B6819001000FFF7AFFFC0462E
:1007D000BD4602B080BD80B582B000AF78607B6856
:1007E0001A687B685B6819001000FFF7AFFFC0460E
:1007F000BD4602B080BD80B582B000AF78607B6836
:100800001A687B685B6819001000FFF7B0FF0300EF
:100810001800BD4602B080BD80B582B000AF7860E0
:100820000A00FB1C1A70FB1C1B78002B04D07B6891
:100830001800FFF7C0FF03E07B681800FFF7CBFF4D
:10084000FB1C1B781800BD4602B080BD80B582B08D
:1008500000AF78607B681800FFF7CDFF0300180039
:10086000BD4602B080BD000080B582B000AF7860A8
:100870000A00FB1C1A70FB1C1B7801221340DAB221
:100880007B6801210A4052021968044801400A436A
:100890001A607B681800BD4602B080BDFFFDFFFFF7
:1008A00080B582B000AF78600A00FB1C1A70FB1C98
:1008B0001B7801221340DAB27B6801210A4012033F
:1008C0001968044801400A431A607B681800BD4655
:1008D00002B080BDFFEFFFFF80B582B000AF78604F
:1008E0000A00FB1C1A70FB1C1B7803221340DAB2AF
:1008F0007B6803210A4012035968044801400A43F7
:100900005A607B681800BD4602B080BDFFCFFFFF74
:1009100080B582B000AF78607B681A6801210A4315
:100920001A607B681800BD4602B080BD80B582B0F9
:1009300000AF78607B681A6804210A431A607B68FC
:100940001800BD4602B080BD80B582B000AF7860AF
:100950007B681A6808210A431A607B681800BD4644
:1009600002B080BD80B582B000AF78607B689A68C5
:1009700080210A439A607B681800BD4602B080BDA2
:1009800080B582B000AF78607B689A6840210A43E6
:100990009A607B681800BD4602B080BD80B582B009
:1009A00000AF78607B681A688021C9000A431A602A
:1009B0007B681800BD4602B080BD000080B582B0E3
:1009C00000AF78607B681A6803490A401A607B6848
:1009D0001800BD4602B080BDFFFBFFFF80B582B0AE
:1009E00000AF78600A00FB1C1A70FB1C1B78002B00
:1009F00004D07B681800FFF7D1FF03E07B68180084
:100A0000FFF7DCFF7B681800BD4602B080BD80B5F3
:100A100082B000AF78600A00FB1C1A707B68FA1C79
:100A2000127801210A4012011968102081430A43FB
:100A30001A607B681800BD4602B080BD80B582B0E8
:100A400000AF78607B68DB69DB06DB0FDBB2180088
:100A5000BD4602B080BD80B582B000AF78607B68D3
:100A60002033012252421A607B681800BD4602B052
:100A700080BD80B582B000AF78607B6824331800F9
:100A8000BD4602B080BD80B582B000AF78607B68A3
:100A900028331800BD4602B080BD000090B587B075
:100AA00000AFF8607A600B243B190A1C1A7000F042
:100AB00097FF02007B6819001000FFF7CBFC0300D2
:100AC0007B613B191B78072B5CD89A00304BD318FD
:100AD0001B689F467A69962399011000FFF714FB63
:100AE00003001A00FB68DA604CE07A69E12399019F
:100AF0001000FFF709FB03001A00FB68DA6041E011
:100B00007A699623D9011000FFF7FEFA03001A0054
:100B1000FB68DA6036E07A69E123D9011000FFF75B
:100B2000F3FA03001A00FB68DA602BE07A69962377
:100B300019021000FFF7E8FA03001A00FB68DA60F8
:100B400020E07A69E12319021000FFF7DDFA0300C3
:100B50001A00FB68DA6015E07A69962359021000E2
:100B6000FFF7D2FA03001A00FB68DA600AE07A693C
:100B7000E12359021000FFF7C7FA03001A00FB68CF
:100B8000DA60C046FB681800BD4607B090BDC0469D
:100B9000203B000880B582B000AF78607B68180009
:100BA000BD4602B080BD90B583B000AF78603960BB
:100BB0003B68DBB2013B9B0001229A4013001C0002
:100BC0007B6804331800FFF7E5FF03001C60C04694
:100BD000BD4603B090BD80B582B000AF78607B6841
:100BE0001800BD4602B080BD80B582B000AF78600D
:100BF00039607B681800FFF7EEFF03001B683A6856
:100C0000D2B2013A92000132012191400A00134010
:100C10005A1E9341DBB21800BD4602B080BD80B5BC
:100C200082B000AF78607B681A6801210A431A60BD
:100C30007B681B68DB07DB0FDBB201225340DBB2B2
:100C4000002B00D0F4E77B681800BD4602B080BDE1
:100C500080B582B000AF78607B681A6801218A4352
:100C60001A607B681800BD4602B080BD80B582B0B6
:100C700000AF78607B681A6880210A431A607B683D
:100C80001800BD4602B080BD80B582B000AF78606C
:100C90007B681A6820210A431A607B681800BD46E9
:100CA00002B080BD80B582B000AF786039607B68EB
:100CB0003A68DA607B681800BD4602B080BD80B536
:100CC00082B000AF786039607B683A689A607B6870
:100CD0001800BD4602B080BD80B582B000AF78601C
:100CE0000A00BB1C1A80BB1C1A887B685A607B6890
:100CF0001800BD4602B080BD80B582B000AF7860FC
:100D00000A00FB1C1A70FB1C1B7801221340DAB28C
:100D10007B6801210A4012011968102081430A43AF
:100D20001A607B681800BD4602B080BD80B582B0F5
:100D300000AF78600A00FB1C1A70FB1C1B780322B2
:100D40001340DAB27B6803210A4092021968044812
:100D500001400A431A607B681800BD4602B080BD9E
:100D6000FFF3FFFF80B582B000AF78600A00FB1C84
:100D70001A70FB1C1B7803221340DAB27B68032134
:100D80000A4012021968044801400A431A607B684D
:100D90001800BD4602B080BDFFFCFFFF80B582B0E9
:100DA00000AF78607B681A6802210A431A607B688A
:100DB0001800BD4602B080BD80B582B000AF78603B
:100DC0007B685B689BB21800BD4602B080BD80B5F1
:100DD00082B000AF78600A00FB1C1A707B680022AA
:100DE0001A607B68FA1C12781A717B681800BD467D
:100DF00002B080BD80B582B000AF7860054B1B6843
:100E00007A68127952B210009847C046BD4602B0C7
:100E100080BDC0460000002080B584B000AF78607F
:100E200039607B681B68FB60FB68002B0BD0FB689C
:100E30005B68002B03D0FB685B68FB60F7E7FB682F
:100E40003A685A6002E07B683A681A60C046BD465C
:100E500004B080BD80B584B000AF78607B681B684B
:100E6000FB60FB68002B09D0FB681B681B68FA68F5
:100E700010009847FB685B68FB60F2E7C046BD4620
:100E800004B080BD80B500AF064B1800FFF7E2FF4D
:100E900000F0AEFD030001211800FFF784FEC046FC
:100EA000BD4680BD9800002080B500AF0C4B1800F7
:100EB000FFF7D0FF00F09CFD030002211800FFF7B0
:100EC00072FE084B1800FFF7C5FF00F091FD03000C
:100ED00003211800FFF767FEC046BD4680BDC0462F
:100EE000A0000020A800002080B500AFFEE780B57C
:100EF00000AFFEE780B500AFFEE780B500AFFEE7CC
:100F000080B500AFFEE780B500AFFEE780B500AF6B
:100F1000064B1800FFF79EFF00F078FD0300180055
:100F2000FFF799FDC046BD4680BDC0469000002039
:100F300080B500AF00F072FDC046BD4680BD80B5F3
:100F400082B000AF78607B68180000F005F80300FD
:100F50001800BD4602B080BD80B582B000AF786099
:100F60007B68180000F005F803001800BD4602B0C9
:100F700080BD80B582B000AF78607B680C3318000C
:100F800000F005F803001800BD4602B080BD80B532
:100F900082B000AF78607B681B681800BD4602B065
:100FA00080BD80B582B000AF78607B681800FFF725
:100FB000C6FF0300180000F005F803001800BD4646
:100FC00002B080BD80B582B000AF78607B68180049
:100FD000BD4602B080BD80B582B000AF78607B684E
:100FE000180000F005F803001800BD4602B080BDEF
:100FF00080B582B000AF78607B68180000F005F81B
:1010000003001800BD4602B080BD80B582B000AFBD
:1010100078607B680833180000F005F803001800BA
:10102000BD4602B080BD80B582B000AF78607B68FD
:101030001B681800BD4602B080BD80B582B000AF0D
:1010400078607B681800FFF7C6FF03001800FFF701
:10105000B9FF03001800BD4602B080BD80B582B064
:1010600000AF78607B68180000F005F803001800F6
:10107000BD4602B080BD80B582B000AF78607B68AD
:10108000180000F005F803001800BD4602B080BD4E
:1010900080B582B000AF78607B680433180000F040
:1010A00005F803001800BD4602B080BD80B582B0CF
:1010B00000AF78607B681B681800BD4602B080BD39
:1010C00080B582B000AF78607B681800FFF7C6FF7C
:1010D00003001800FFF776FF03001800BD4602B0BA
:1010E00080BD80B582B000AF78607B68180000F0EA
:1010F00005F803001800BD4602B080BD80B582B07F
:1011000000AF78607B68180000F005F80300180055
:10111000BD4602B080BD80B582B000AF78607B680C
:10112000180000F005F803001800BD4602B080BDAD
:1011300080B582B000AF78607B681B681800BD4640
:1011400002B080BD80B582B000AF78607B681800C7
:10115000FFF7C7FF03001800FFF734FF0300180074
:10116000BD4602B080BD000080B500AF0F4B1B68CC
:10117000012213400AD100F0EDFD01000C4B0222C8
:101180001800FFF707FB094B01221A6000F028FC4A
:101190000300180000F0E5FD054B1B68180000F087
:1011A000EEFD034B1800BD4680BDC046C8000020C0
:1011B000C000002080B500AF0F4B1B680122134018
:1011C0000AD100F0C7FD01000C4B03221800FFF705
:1011D000E1FA094B01221A6000F002FC030018003A
:1011E00000F0BFFD054B1B68180000F0DAFD034B53
:1011F0001800BD4680BDC046D4000020CC000020B1
:1012000080B500AF0F4B1B68012213400AD100F0DC
:10121000DBFD01000C4B01221800FFF7BBFA094B64
:1012200001221A6000F0DCFB0300180000F0D4FD7E
:10123000054B1B68180000F0DDFD034B1800BD4690
:1012400080BDC046E0000020D800002080B500AF7F
:1012500002231800BD4680BD80B500AF014B1800C9
:10126000BD4680BD9000002080B582B000AF7860A0
:101270007B681800BD4602B080BD80B582B000AF6B
:1012800078607B681800FFF7EFFF0300180000F09C
:101290003AFE01007A6880235B00D358CB1818000F
:1012A000BD4602B080BD000080B500AF014B180004
:1012B000BD4680BDA0000020F0B5C64600B590B088
:1012C00006AF00F042FD09237B620A233B6207233D
:1012D000FB610423BB6104237B61634B1B68012218
:1012E000134028D1FFF740FFF860FFF763FFB860B5
:1012F000FFF786FF786000F089FB040000F078FBC0
:10130000050000F085FD060000F08AFD8046FFF72D
:101310009DFF03005548059306230493434603931A
:101320000296019500947B68BA68F96800F093FD15
:101330004D4B01221A6000F053FB03003B613B69F7
:10134000180000F0C5FD494A8C235B00D3581800F3
:10135000FFF7FAFA03001800FFF7E8FA0300180095
:10136000FFF700FB03001800FFF70AFBFFF774FF0D
:1013700003001800FFF73EFD3B69180000F0B6FDC2
:101380003A4A8E235B00D35801211800FFF7B4FCC2
:101390000400364B1800FFF770FF0300190020000F
:1013A000FFF780FC0400314A8C235B00D3581800FF
:1013B000FFF769FB030019002000FFF780FC030022
:1013C0001800FFF753FC030000211800FFF7AEFCE4
:1013D000030000211800FFF7C5FC03001800FFF709
:1013E000DDFCFFF761FF03001800FFF703FD1F4A54
:1013F00090235B00D35800211800FFF77DFC040008
:101400001A4B1800FFF739FF030019002000FFF7FF
:1014100049FC0400154A8C235B00D3581800FFF7E1
:1014200028FB030019002000FFF749FC0300FF21FF
:101430001800FFF751FC03001800FFF717FC03002A
:1014400000211800FFF772FC030000211800FFF7CD
:1014500089FC03001800FFF717FC044B1800BD4679
:101460000AB004BC9046F0BD10020020E400002049
:10147000B0B586B002AF02003B1D1980FB1D1A708B
:10148000FFF71AFF0300FB60264B1B680122134085
:1014900010D1FFF7E1FE0500FFF706FF0400FA6830
:1014A000FB1D1978204800942B0000F039FD1D4BDE
:1014B00001221A603B1D1B781F229343DBB2002BD5
:1014C0001CD03B1D1B781F229343DBB2202B13D073
:1014D0003B1D1B781F229343DBB2402B0AD03B1DE0
:1014E0001B781F229343DBB2602B01D1022306E05D
:1014F000012304E0022302E0032300E004230A4A5C
:101500001362094B1B693A1D1100180000F078FDA9
:10151000054B1B69180000F0B9FD034B1800BD46D0
:1015200004B0B0BD980200201402002080B582B043
:1015300000AF78600A00BB1C1A80BB1C1B88042B00
:1015400000D97CE09A00404BD3181B689F467B680B
:101550005A687B685B6850205E21125A5A527B6839
:101560005B685E331A007B681B6812885A8066E0ED
:101570007B685A687B685B685221515A6022995295
:1015800060229A5A7B681B68D2B21A7157E07B6856
:101590005B6854229B5AD03B5A425341DAB22B4BE0
:1015A0001A704CE0294B1B78002B0FD0274B0022E0
:1015B0001A707B685A687B685B685621515A5C22B6
:1015C00099527A6812685C215B5A13801F4B012282
:1015D0001A7034E07B685B6858229B5CDB07DB0F8A
:1015E000DAB27B689B6811001800FFF715F97B6879
:1015F0005B6858229B5C9B07DB0FDAB27B68DB6879
:1016000011001800FFF708F97B685B6858229B5CA3
:101610005B07DB0FDAB27B681B6911001800FFF76C
:10162000FBF87B685B6858229B5C1B07DB0FDAB218
:101630007B685B6911001800FFF7EEF8C046C046F2
:10164000BD4602B080BDC046403B00089C02002061
:10165000F0B59FB004AF1C243B19180000F0A6FAA7
:101660003B191800FFF79DFC03007B663B1918002F
:10167000FFF7E3FC03003B663B191800FFF720FD72
:101680000300FB653B191800FFF75CFD0300BB6519
:101690000C243B19180000F03DFB3B191800FFF724
:1016A00080FC03007B653B191800FFF7C6FC0300B4
:1016B0003B653B191800FFF703FD0300FB643B1972
:1016C0001800FFF73FFD0300BB643B1D1800062315
:1016D0001A00002102F0B4F83B1D01221A713B1DD3
:1016E0001A793B1D5B88191C1000FFF7C1FE03002F
:1016F0007B647B6C5A22652199523B1D19887B6C57
:101700005C2299527B6C3A1D5E2152885A523B1DD5
:101710001B7999B27B6C602299527B6C6422042104
:1017200099527B6C6622042199522C217B183A1D18
:101730001A607B187A6C5A607B187A6E9A607B18F4
:101740003A6EDA607B18FA6D1A617B18BA6D5A61CD
:101750007B18786C6A4611001A000C3270CA70C18E
:1017600019685A689B6800F0D8FC7B6D1800FFF779
:101770006DF8030018007B6C622201210840040010
:10178000995C01208143081C211C014399543B6D45
:101790001800FFF75BF8030018007B6C6222012140
:1017A00001404C18995C02208143081C211C014314
:1017B0009954FB6C1800FFF749F8030018007B6C84
:1017C0006222012101408C00995C04208143081CA5
:1017D000211C01439954BB6C1800FFF737F8030034
:1017E00018007B6C622201210140CC00995C08202A
:1017F0008143081C211C0143995430BF95E780B5F3
:1018000082B000AF786039607B685A683B685A6084
:101810007B685B68002B03D07B685B683A689A60E2
:101820007B683A685A607B681B68002B02D17B6832
:101830003A681A60C046BD4602B080BD80B582B02D
:1018400000AF786039603B685B68002B0ED03B6866
:101850009B68002B0AD03B685B683A6892689A6084
:101860003B689B683A6852685A602DE03B689B6809
:10187000002B0FD03B689A687B681A607B681B68F6
:1018800000225A607B681B68002B1DD17B680022F8
:101890005A6019E03B685B68002B0FD03B685A68C0
:1018A0007B685A607B685B6800229A607B685B6833
:1018B000002B09D17B6800221A6005E07B680022BA
:1018C0001A607B6800225A603B6800225A603B68BD
:1018D00000229A60C046BD4602B080BD80B584B08B
:1018E00000AF78607B681A680C23FB1811001800A1
:1018F00000F0BEFCFB681800BD4604B080BD80B59A
:1019000082B000AF78607B6800221A607B681800A4
:10191000BD4602B080BD80B584B000AF78600023C2
:10192000FB600C23FB181800FFF7E9FFFB681800A9
:10193000BD4604B080BD80B582B000AF786039602C
:101940007B681A683B681B68D31A5A1E9341DBB246
:101950001800BD4602B080BD80B582B000AF78608F
:101960007B681B689A687B681A607B681800BD46B4
:1019700002B080BD80B582B000AF78607B681B6824
:101980001800BD4602B080BD80B500AF014B180005
:10199000BD4680BD10E000E080B584B000AF786047
:1019A0000E4BFB600D4A7B6811001800FEF7CCFD62
:1019B0007B681800FEF7D4FD7B6801211800FEF754
:1019C000DAFD7B681800FEF7EFFD7B681800FEF774
:1019D000F8FDC046BD4604B080BDC0467FBB0000D8
:1019E00080B500AF014B1800BD4680BD001002401D
:1019F00080B500AF044B19000820FEF739FD030045
:101A00001800BD4680BDC0460000024080B500AF52
:101A1000014B1800BD4680BD0038014080B500AFC5
:101A2000FFF7DEFF03001800FEF798FC0300180024
:101A3000FEF7A3FC030000211800FEF707FC0300DB
:101A400000211800FEF71CFC030002211800FEF71D
:101A500033FC030004211800FEF764FC030001219D
:101A60001800FEF743FC03001800FEF79AFC030081
:101A70001800FEF7A5FCC046BD4680BD80B500AF8E
:101A80000F4B1B68012213400AD100F09DF90100A1
:101A90000C4B00221800FEF77DFE094B01221A6054
:101AA000FFF79EFF0300180000F096F9054B1B6836
:101AB000180000F0EAFB034B1800BD4680BDC0468D
:101AC000A8020020A002002080B500AF0F4B1B68C9
:101AD000012213400AD100F03DF901000C4B07220E
:101AE0001800FEF757FE094B01221A60FFF778FF36
:101AF0000300180000F035F9054B1B68180000F0D2
:101B0000D1FB034B1800BD4680BDC046B402002087
:101B1000AC02002080B500AF0F4B1B6801221340C0
:101B20000AD100F017F901000C4B06221800FEF74D
:101B300031FE094B01221A60FFF752FF0300180023
:101B400000F00FF9054B1B68180000F0B8FB034BC1
:101B50001800BD4680BDC046C0020020B80200206B
:101B600080B500AF0F4B1B68012213400AD100F073
:101B7000F1F801000C4B05221800FEF70BFE094B93
:101B800001221A60FFF72CFF0300180000F0E9F8AB
:101B9000054B1B68180000F09FFB034B1800BD4667
:101BA00080BDC046CC020020C4020020F0B585B044
:101BB00002AF7860FFF762FF0400FFF785FF0500C2
:101BC000FFF7A8FF0600FFF7CBFF0300786800933C
:101BD00033002A00210000F08CFB7868BD4603B07A
:101BE000F0BD000080B500AF0F4B1B680122134011
:101BF0000AD100F0AFF801000C4B09221800FEF7E3
:101C0000C9FD094B01221A60FFF7EAFE0300180024
:101C100000F0A7F8054B1B68180000F07EFB034B93
:101C20001800BD4680BDC046D8020020D00200206A
:101C300080B500AF0F4B1B68012213400AD100F0A2
:101C400089F801000C4B08221800FEF7A3FD094B90
:101C500001221A60FFF7C4FE0300180000F081F8AB
:101C6000054B1B68180000F065FB034B1800BD46D0
:101C700080BDC046E4020020DC02002080B500AF39
:101C80000F4B1B68012213400AD100F09DF80100A0
:101C90000C4B0F221800FEF77DFD094B01221A6044
:101CA000FFF79EFE0300180000F096F8054B1B6836
:101CB000180000F04CFB034B1800BD4680BDC04629
:101CC000F0020020E802002080B500AF0F4B1B6837
:101CD000012213400AD100F077F801000C4B0E22CC
:101CE0001800FEF757FD094B01221A60FFF778FE36
:101CF0000300180000F070F8054B1B68180000F096
:101D000033FB034B1800BD4680BDC046FC020020DB
:101D1000F4020020F0B585B002AF7860FFF762FFF3
:101D20000400FFF785FF0500FFF7A8FF0600FFF797
:101D3000CBFF03007868009333002A00210000F0F5
:101D4000D8FA7868BD4603B0F0BD80B500AFC04694
:101D5000BD4680BD80B500AF9023DB051800BD46B1
:101D600080BD80B582B000AF78607B685A69802101
:101D700089020A435A61C046BD4602B080BD80B5A3
:101D800082B000AF78607B680221180000F0F9FA99
:101D90007B680121180000F00FFBC046BD4602B071
:101DA00080BD80B582B000AF78607B6802211800EA
:101DB00000F01EFB7B680121180000F033FBC046D9
:101DC000BD4602B080BD000080B500AF014B1800D9
:101DD000BD4680BD0004004880B582B000AF786089
:101DE0007B685A698021C9020A435A61C046BD46D0
:101DF00002B080BD80B582B000AF78607B68012101
:101E0000180000F02BFBC046BD4602B080BD0000AC
:101E100080B500AF014B1800BD4680BD1C000240DC
:101E200080B500AF014B1800BD4680BD30000240B8
:101E300080B582B000AF78607A6880235B000021B3
:101E4000D1507A6882235B000021D1507B68180052
:101E5000BD4602B080BD80B584B000AFF860B96007
:101E60007A603B60FB681800FFF7E2FFFA688423A2
:101E70005B00B968D150FA6886235B007968D1505D
:101E8000FA6888235B003968D150FA688A235B00BE
:101E9000F969D150FA688C235B00B969D150FA68AE
:101EA0008E235B00396AD150FA6890235B00796A0F
:101EB000D150FA6892235B00B96AD150FA68942332
:101EC0005B00F96AD150FB681800BD4604B080BDC4
:101ED00080B582B000AF78607B689A698021C901C3
:101EE0000A439A61C046BD4602B080BD80B582B04B
:101EF00000AF78607B685A6901210A435A61C04685
:101F0000BD4602B080BD80B582B000AF78607B680E
:101F1000180000F0BDFA03001800BD4602B080BDF5
:101F200090B585B000AFF8607A603B600B243B1938
:101F30000A1C1A70FB681800FEF7B0FB2F4AFB68FA
:101F40001A60FB687A681A61FB683A685A61FB6834
:101F50003A6A9A61FB680022DA61FB6800221A6221
:101F6000FB683A19242112785A54FB680022DA845B
:101F7000FB6800221A85FB6800225A85FB682C2228
:101F800000219954FB6800221A86FB683833FA68EE
:101F90001100180000F09CFAFB684433FA68110045
:101FA000180000F0B3FAFB6850330A220021180031
:101FB00001F046FCFB685A229B180E2200211800F3
:101FC00001F03EFCFB6868330A220021180001F092
:101FD00037FCFB6872229B180A220021180001F0CE
:101FE0002FFCFB687C3305220021180001F028FC3F
:101FF000FB681800BD4605B090BDC0465C3B0008BC
:1020000080B582B000AF786039607A688C235B005D
:10201000D0583B681B781B065B0FDBB219007A684F
:1020200092235B00D3581A00FEF738FD02003B688C
:102030001B789B07DB0FDBB219001000FEF714FCC6
:1020400002003B681B785B07DB0FDBB21900100056
:10205000FEF726FC02003B681B78DB069B0FDBB219
:1020600019001000FEF738FC02003B681B78DB0704
:10207000DB0FDBB219001000FEF7B0FC0300180004
:10208000FEF746FCC046BD4602B080BD80B582B0BA
:1020900000AF78607B68180000F056FA7A688823F1
:1020A0005B00D35800211800FEF7B6FB7A688E2338
:1020B0005B00D3581800FEF7CBFD7A6890235B00D5
:1020C000D3581800FEF7C4FD0300FF211800FEF7E7
:1020D00003FE7A6890235B00D3581800FEF79FFD3B
:1020E0007A688C235B00D35801211800FEF78FFC1F
:1020F000C046BD4602B080BD80B582B000AF7860FA
:102100007A6882235B00D258796880235B00CB58C1
:10211000D31A1800BD4602B080BD84B0F0B5C646E3
:1021200000B586B004AF786004201024A4461024C3
:10213000A046B844C44460440160426083607B6848
:102140001B69180000F012FA031E07D07B680022FA
:10215000DA617B681800FEF7B7FA81E07B68DA691C
:102160007B681B6A9A4200DA79E07B680022DA61B8
:102170007B681800FEF7A8FA7B681B691800FFF758
:10218000BBFF0100072200238A425B41DBB2002B28
:1021900005D07B681B691800FFF778FF60E07B685B
:1021A0001B69180000F0FEF903001A787B682421EF
:1021B0005B5CD31A5A1E9341DBB2002B05D07B68BF
:1021C0001B691800FFF762FF4AE07B68180000F007
:1021D000DFFA03001A0001235340DBB2002B05D0C5
:1021E0007B681B691800FFF751FF39E07B681B69AA
:1021F000180000F016FB7B681B69180000F011FB4B
:10220000030019007B68252299547B6825229B5C7A
:10221000032B04D17B68180000F02BFB20E07B68C7
:1022200025229B5C102B14D10423102294461022EB
:102230009046B844C444634478686A4611001A0062
:102240000C3270CA70C119685A689B6800F095FB1F
:1022500006E07B680121180000F042FC00E0C04667
:10226000BD4602B004BC9046F0BC08BC04B01847A0
:1022700080B582B000AF786039607B683A681A60D8
:102280007B681800BD4602B080BD80B582B000AF4B
:1022900078607B680121180000F0BEFCC046BD4696
:1022A00002B080BD80B582B000AF78607B6801214C
:1022B000180000F0CBFCC046BD4602B080BD80B522
:1022C00082B000AF78607B680121180000F0DAFC72
:1022D000C046BD4602B080BD80B582B000AF786018
:1022E0007B680121180000F0E9FCC046BD4602B041
:1022F00080BD90B587B002AFF860B9607A603B608E
:102300003C687A68B968F8683B6A0093230000F07B
:10231000F1FCF868BD4605B090BD80B582B000AF55
:1023200078607B680021180000F0FAFCC046BD46CA
:1023300002B080BD80B582B000AF78607B680021BC
:10234000180000F009FDC046BD4602B080BD80B552
:1023500082B000AF78607B680021180000F018FDA3
:10236000C046BD4602B080BD80B582B000AF786087
:102370007B680021180000F023FDC046BD4602B076
:1023800080BD80B582B000AF78600A00FB1C1A7077
:10239000FB1C1B7803221340DAB27B6803210A403E
:1023A00012011968302081430A431A607B681800C3
:1023B000BD4602B080BD000080B582B000AF78603D
:1023C0000A00FB1C1A70FB1C1B780F221340DAB2A8
:1023D0007B680F210A401202196A044801400A432F
:1023E0001A627B681800BD4602B080BDFFF0FFFF97
:1023F00080B582B000AF78600A00FB1C1A70FB1C2D
:102400001B7803221340DAB27B6803210A40920151
:102410001968C02081430A431A607B681800BD46D2
:1024200002B080BD80B582B000AF78600A00FB1CAE
:102430001A70FB1C1B780F221340DAB27B680F2145
:102440000A401203196A044801400A431A627B6871
:102450001800BD4602B080BDFF0FFFFF80B582B0FF
:1024600000AF78600A00FB1C1A70FB1C1B7803226B
:102470001340DAB27B6803210A40920019680C20ED
:1024800081430A431A607B681800BD4602B080BDD4
:1024900080B582B000AF78607B68180000F0ACFCBB
:1024A00003001800BD4602B080BD000080B582B0B8
:1024B00000AF7860054A7B681A607B6800225A602A
:1024C0007B681800BD4602B080BDC046803B000856
:1024D00080B582B000AF786039607B681800FFF784
:1024E000E5FF094A7B681A607B683A689A603B6836
:1024F0005B697A6811001800FEF78EFC7B68180093
:10250000BD4602B080BDC046743B000880B582B0B5
:1025100000AF786039607B681800FFF7C7FF094A91
:102520007B681A607B683A689A603B689B697A6846
:1025300011001800FEF770FC7B681800BD4602B061
:1025400080BDC046683B000880B582B000AF7860AF
:102550007A6880235B000021D1507A6882235B0077
:102560000021D150C046BD4602B080BD90B583B0B9
:1025700000AF78607B681800FFF7BEFD04007A6842
:1025800090235B00D3581800FEF716FC03001A00D6
:10259000FF239B1A9C429B415B42DBB21800BD4665
:1025A00003B090BD80B582B000AF78607B68180042
:1025B000FEF75AFE7A6880235B00D358190000F0BA
:1025C00024FC03001800BD4602B080BD80B582B077
:1025D00000AF78607B681800FEF746FE0300180025
:1025E000FFF791FC01007A6882235B00D358CB1877
:1025F0001800BD4602B080BD90B587B000AFF8604E
:10260000B9607A601623FB18FF221A701523FB1895
:10261000FF221A70BB685A1CBA60197815243B193E
:102620001A7817203B184A401A7001007B181B7853
:102630000F4AD25C16203B181B785340DAB23B1984
:102640001A707B181B780B4AD25C3B181A70BA6858
:102650007B689A4200D0DDE71623FA181523F91893
:10266000FB68180000F014FCF868BD4607B090BD88
:1026700020390008203A000880B582B000AF7860A9
:102680007B68180000F005F803001800BD4602B092
:1026900080BD80B582B000AF78607B68180000F024
:1026A00005F803001800BD4602B080BD80B582B0B9
:1026B00000AF78607B680133180000F005F8030074
:1026C0001800BD4602B080BD80B582B000AF786012
:1026D0007B681800BD4602B080BD80B582B000AFF7
:1026E00078607B681800FFF7C7FF0300180000F050
:1026F00005F803001800BD4602B080BD80B582B069
:1027000000AF78607B681800BD4602B080BD80B520
:1027100082B000AF78607B68180000F005F8030015
:102720001800BD4602B080BD80B582B000AF7860B1
:102730007B68180000F005F803001800BD4602B0E1
:1027400080BD80B582B000AF78607B68180000F073
:1027500005F803001800BD4602B080BD80B582B008
:1027600000AF78607B681800BD4602B080BD80B5C0
:1027700082B000AF78607B681800FFF7C8FF0300E5
:102780001800FFF7BBFF03001800BD4602B080BD74
:10279000F0B587B000AF78607B681B691726BC195D
:1027A000180000F042FB030023707B681B691622AF
:1027B000BC18180000F039FB030023707B681B690C
:1027C0001800FEF75AFD04007B681B691800FFF72C
:1027D000FDFE020008257B1921001800FFF70CFF01
:1027E0002C003B191800FFF778FF03003B613B19F1
:1027F0001800FFF7BCFF0300FB60FB681B78BA19E9
:1028000012789A4208D13B691B781622BA181278BE
:102810009A4201D1012300E000231800BD4607B011
:10282000F0BD90B583B000AF78607A6882235B001A
:10283000D258796880235B00CB589A4214D97B68C0
:102840001800FEF711FD04007A6880235B00D3585E
:10285000581C79688022520088501900200000F02E
:10286000D4FA03001B7800E000231800BD4603B033
:1028700090BDB0B586B000AF78607B6807211800C6
:1028800000F021FB03001A0001235340DBB2002BB0
:1028900005D07B680221180000F022F96AE07B680D
:1028A0001B691800FFF750FE7B681B6918007B68E6
:1028B00024229B5C190000F041FB03000321180057
:1028C00000F03CFB7B682C229B5C190000F036FB7F
:1028D0007B685B8D5A1E91B27A6851855A1E93416E
:1028E000DBB2002B12D07B681B6918007B68DB8C85
:1028F0005A1C91B27A68D1847A682C335B00D31861
:1029000002331B88190000F07AFBE1E77B681B6942
:102910001800FEF7B2FC04007B681B691800FFF783
:1029200055FE02000C257B1921001800FFF764FEFC
:102930002C003B191800FFF7D0FE03007B613B1908
:102940001800FFF714FF03003B617B681B691A0046
:102950007B691B781900100000F0F0FA02003B6957
:102960001B781900100000F0E9FA7B681B69180059
:1029700000F073FBBD4606B0B0BD84B0B0B586B004
:1029800000AF786004202824A446BC446044016061
:10299000426083607B680521180000F094FA030010
:1029A0001A0001235340DBB2002B05D07B680221C3
:1029B000180000F095F88DE07B681B691A007B68B1
:1029C0002C331900100000F085FB7B68180000F024
:1029D000AFFB03001A0001235340DBB2002B05D0EC
:1029E0007B680321180000F07BF873E01623FB18C6
:1029F00000221A807B685B8D1622BA1812889A42D0
:102A000012D27B68DA8C16243B191B88D3189AB231
:102A10002C23FB1811001800FEF788FD3B191A88BB
:102A20003B1901321A80E5E77B681B691800FFF744
:102A30008BFD7B681B6918007B6824229B5C190056
:102A400000F07CFA7B6825229B5C190000F076FA86
:102A500002007B68DB8C1900100000F0D0FA020045
:102A60007B685B8D1900100000F0C9FA7B681B6958
:102A70001800FEF702FC04007B681B691800FFF7D2
:102A8000A5FD020008257B1921001800FFF7B4FD01
:102A90002C003B191800FFF720FE03003B613B1997
:102AA0001800FFF764FE0300FB607B681B691A00D7
:102AB0003B691B781900100000F040FA0200FB6827
:102AC0001B781900100000F039FA7B681B691800A8
:102AD00000F0C3FABD4606B0B0BC08BC04B018474D
:102AE000B0B586B000AF78600A00FB1C1A707B6836
:102AF0001B691800FFF728FDFB1C1B78012B1ED15A
:102B00007B681B6918007B6824229B5C190000F01D
:102B100015FA04007B6825229A5C7B681100180076
:102B200000F0D4FB03001900200000F007FA0200B7
:102B3000FB1C1B781900100000F000FA34E0FB1CAD
:102B40001B78022B16D17B681B6918007B68242236
:102B50009B5C190000F0F2F97B6825229B5C190050
:102B600000F0ECF90200FB1C1B781900100000F0CB
:102B7000E5F919E0FB1C1B78032B15D17B681B6959
:102B800018007B6824229B5C190000F0D7F97B6851
:102B900025229B5C190000F0D1F90200FB1C1B7878
:102BA0001900100000F0CAF97B681B691800FEF7D5
:102BB00064FB04007B681B691800FFF707FD020037
:102BC0000C257B1921001800FFF716FD2C003B197E
:102BD0001800FFF782FD03007B613B191800FFF727
:102BE000C6FD03003B617B681B691A007B691B788B
:102BF0001900100000F0A2F902003B691B781900CF
:102C0000100000F09BF97B681B69180000F025FAA2
:102C1000C046BD4606B0B0BD80B582B000AF78609A
:102C20000A00FB1C1A70FB1C1B7803221340DAB24B
:102C30007B6803210A401968032081430A431A6014
:102C40007B681800BD4602B080BD000080B582B030
:102C500000AF78600A00FB1C1A70FB1C1B78032273
:102C60001340DAB27B6803210A40920319680448D2
:102C700001400A431A607B681800BD4602B080BD5F
:102C8000FF3FFFFF80B582B000AF78600A00FB1CF9
:102C90001A70FB1C1B7803221340DAB27B680321F5
:102CA0000A4012031968044801400A431A607B680D
:102CB0001800BD4602B080BDFFCFFFFF80B582B0D7
:102CC00000AF78600A00FB1C1A70FB1C1B78032203
:102CD0001340DAB27B6803210A4092021968044863
:102CE00001400A431A607B681800BD4602B080BDEF
:102CF000FFF3FFFF90B587B002AFF860B9607A606C
:102D00003B60F8683C687A68B9683B6A00932300C6
:102D100000F0EDFAFB681800BD4605B090BD00005C
:102D200080B582B000AF78600A00FB1C1A70FB1CF3
:102D30001B7803221340DAB27B6803210A40920415
:102D40001968044801400A431A607B681800BD46B0
:102D500002B080BDFFFFF3FF80B582B000AF7860A6
:102D60000A00FB1C1A70FB1C1B7803221340DAB20A
:102D70007B6803210A4012041968044801400A4391
:102D80001A607B681800BD4602B080BDFFFFFCFFE3
:102D900080B582B000AF78600A00FB1C1A70FB1C83
:102DA0001B7803221340DAB27B6892071968890006
:102DB00089080A431A607B681800BD4602B080BDCE
:102DC00080B582B000AF78600A00FB1C1A70FB1C53
:102DD0001B7803221340DAB27B6803210A401207F2
:102DE0001968044801400A431A607B681800BD4610
:102DF00002B080BDFFFFFFCF80B582B000AF78602A
:102E00007B681800BD4602B080BD80B582B000AFBF
:102E1000786039607B683A681100180000F080FA29
:102E200003001800BD4602B080BD80B582B000AF7F
:102E300078607A6882235B00D258796880235B00CF
:102E4000CB589A4216D97B681800FEF70DFA7A68BB
:102E500082235B00D358591E7A6882235B00D150CD
:102E60007A6882235B00D3581900FFF7CEFF030076
:102E70001B7800E000231800BD4602B080BD80B57D
:102E800082B000AF78607B681800BD4602B080BD9C
:102E9000B0B584B000AFF860B9607A60FC68BB6818
:102EA0001800FFF7ECFF05007B681800FFF7E7FF4D
:102EB00003001A002900200000F03EFAFB68180009
:102EC000BD4604B0B0BD80B582B000AF78600A00E6
:102ED000BB1C1A807B681B691A007B6826331900AB
:102EE000100000F064FA7B681B691A007B682A33C3
:102EF0001900100000F05BFA7B68DA8C7B685B8D50
:102F0000D3189BB2013B9AB27B681A857B685B8DB4
:102F1000DBB2DB18D9B27B682C2299547B681B8DFD
:102F20001A00BB1C1B88013BD00FD91793424841A4
:102F30000300DBB21800BD4602B080BD90B583B07F
:102F400000AF78600A00FB1C1A707A6882235B006D
:102F5000D358FE2B11D8FB1C1C787B681800FFF798
:102F600035FB0300221C1A707A6882235B00D35859
:102F7000591C7A6882235B00D1507B681800BD46DB
:102F800003B090BD80B582B000AF786039607B68D7
:102F90003A681100180000F005F803001800BD465B
:102FA00002B080BD80B582B000AF786039607A68C9
:102FB0003B68D3181800BD4602B080BDB0B586B0DE
:102FC00000AFF860B960BB1D1A8014257B19BA1DCB
:102FD00012881A807B1900211800FFF7D3FF040024
:102FE0007B1901211800FFF7CDFF0200FB682100CB
:102FF0001800FFF74DFFF868BD4606B0B0BD90B5AC
:1030000087B000AF78600A00BB1C1A800C24381906
:10301000BB1C1A887B681900FFF7D0FF3B1918000A
:10302000FFF75BFB03007B613B191800FFF79FFB79
:1030300003003B613B691A787B6811001800FFF7B9
:103040007DFF02007B691B7819001000FFF776FFF7
:103050007B681800BD4607B090BD90B583B000AF47
:1030600078607A6888235B00D35801211800FDF747
:10307000D3FB7A688C235B00D35800211800FDF73E
:10308000C6FC7A6890235B00D3581800FDF7E0FD7A
:103090007A688E235B00D3581800FDF7D9FD7A6853
:1030A0008E235B00D4587B681800FFF725F80300D7
:1030B0009BB202339BB219002000FDF70DFE7A6827
:1030C0008E235B00D3581800FDF7A9FDC046BD460E
:1030D00003B090BD90B583B000AF786039607A6876
:1030E00082235B00D258796880235B00CB589A42D8
:1030F00016D97B681800FEF7B7F804007A688023B9
:103100005B00D358581C79688022520088501900FF
:103110002000FFF77AFE03001A783B681A7002E07D
:103120003B6800221A707B681800BD4603B090BD52
:1031300080B584B000AF78600E23FB1800221A809F
:103140007B685B8D0E22BA1812889A4200D3B8E0D1
:103150007B681B691A007B682E331900100000F091
:1031600026F97B68DB8C1A000E23FB181B88D3180A
:103170007A687C21D3185B181B78002B4FD07B68B2
:10318000DB8D1AB27B68DB8C19000E23FB181B88C1
:10319000C9187B6834314900CB5A1BB29A420CDA09
:1031A0007B68DB8C1A000E23FB181B88D2187B6807
:1031B00034325200D35A002B21D17B68DB8D1AB2F6
:1031C0007B68DB8C19000E23FB181B88CB187968F1
:1031D00038335B00CB1802331B881BB29A4210DDD8
:1031E0007B68DB8C1A000E23FB181B88D3187A68C7
:1031F00038335B00D31802331B88002B01D0002327
:1032000060E07B68DB8C1A000E23FB181B88D21849
:103210007B68D98D7B6828325200D1524AE07B68A6
:10322000DA8D7B68DB8C19000E23FB181B88C9180C
:103230007B6834314900CB5A9A420CD27B68DB8CD4
:103240001A000E23FB181B88D2187B6834325200F8
:10325000D35A002B1FD17B68DA8D7B68DB8C190079
:103260000E23FB181B88CB18796838335B00CB180A
:1032700002331B889A4210D97B68DB8C1A000E231C
:10328000FB181B88D3187A6838335B00D3180233D5
:103290001B88002B01D0002314E07B68DB8C1A0014
:1032A0000E23FB181B88D2187B68D98D7B682832C7
:1032B0005200D1520E217B181A887B1801321A80D5
:1032C0003EE701231800BD4604B080BD80B582B042
:1032D00000AF78600A00FB1C1A70FB1C1B78802270
:1032E00052421343DBB21800BD4602B080BD80B528
:1032F00084B000AFF860B9607A603B60F868BB6981
:103300003A68796800F088F8FB680C33BA681100F5
:10331000180000F09AF8FB681800BD4604B080BDA4
:1033200080B582B000AF786039607A683B68D318A6
:103330001800BD4602B080BD90B585B000AFF86002
:10334000B9607A60FC687B681800FFF798FD03009D
:103350001900200000F086F8FB685C1CBB681800B0
:10336000FFF78DFD03001900200000F08FF8FB68C7
:103370001800BD4605B090BD80B584B000AF786040
:1033800008001100FB1C021C1A70BB1C0A1C1A70DE
:103390000C217B18BA1C12781A707B18FA1C127850
:1033A0005A707B181B881800BD4604B080BDF0B56C
:1033B00085B000AF786039607A6882235B00D258AC
:1033C000796880235B00CB5801339A421CD90F25C2
:1033D0007C197B681800FFF724FA030023700E267F
:1033E000BC197B681800FFF71CFA03002370BB1997
:1033F0001A787B1919787B681800FFF7BDFF030066
:103400001A003B681A8002E03B6800221A807B6841
:103410001800BD4605B0F0BD80B584B000AFF860BF
:10342000B9607A603B60FB683A687968180000F020
:103430003FF8FB680833BA681100180000F050F834
:10344000FB681800BD4604B080BD80B582B000AFF7
:10345000786039607B683A681A607B681800BD46FE
:1034600002B080BD90B583B000AF786039607C68F1
:103470003B681800FFF703FD03001900200000F06F
:103480003CF87B681800BD4603B090BD80B582B0A3
:1034900000AF786039603B681800FFF7F0FC03006C
:1034A0001A787B681A707B681800BD4602B080BD30
:1034B00080B584B000AFF860B9607A60FB687A6864
:1034C0001100180000F02BF8FB680433BA681100F3
:1034D000180000F034F8FB681800BD4604B080BD49
:1034E00080B582B000AF786039607B683A681A6056
:1034F0007B681800BD4602B080BD80B582B000AFC9
:10350000786039603B681800FFF7B9FC03001A784F
:103510007B681A707B681800BD4602B080BD80B51C
:1035200082B000AF786039607B683A68110018009B
:1035300000F012F87B681800BD4602B080BD80B56F
:1035400082B000AF786039607B683A681A607B6847
:103550001800BD4602B080BD80B582B000AF786073
:1035600039607B683A681A607B681800BD4602B013
:1035700080BD000080B582B000AF786039607B68A4
:10358000012B25D13B68144A934221D1134B1800DB
:10359000FDF740F8124B1B211800FDF718FC114BEA
:1035A00009211800FDF713FC0F4B0A211800FDF745
:1035B0000EFC0E4B0A211800FDF709FC0C4B0B21E9
:1035C0001800FDF704FC0B4B0B211800FDF7FFFB67
:1035D000C046BD4602B080BDFFFF0000880000204D
:1035E0009000002098000020A0000020A8000020EB
:1035F000B0000020B800002080B582B000AF786035
:103600007B68DB695A1C7B68DA61C046BD4602B044
:1036100080BD80B582B000AF78607B689B68180081
:1036200000F011F8C046BD4602B080BD80B582B042
:1036300000AF78607B689B68180000F018F8C046FF
:10364000BD4602B080BD80B582B000AF78607B68B7
:103650001B69180000F01EF8031E04D07B681B696C
:103660001800FEF713FDC046BD4602B080BD80B510
:1036700082B000AF78607B681B69180000F01EF80C
:10368000031E03D07B681800FDF736F8C046BD4620
:1036900002B080BD80B582B000AF78607A688A23BE
:1036A0005B00D0587A6894235B00D3581900FDF76B
:1036B0009BFA03001800BD4602B080BDB0B584B0CF
:1036C00000AF78607A688C235B00D3580F257C1993
:1036D0001800FDF7B3F9030023707B191B78002B4A
:1036E0000FD07C687A6890235B00D3581800FDF7F0
:1036F00063FB03001A00FF239B1A1900200000F04F
:1037000012F80F23FB181B78002B07D07B681800DA
:10371000FEF7F2FC031E01D0012300E00023180095
:10372000BD4604B0B0BD80B584B000AF78603960EC
:103730007A6880235B000021D150FF23FB600C23BB
:10374000FA183B0011001800FCF79CFE03001968F2
:103750007A6882235B00D150C046BD4604B080BD6C
:1037600080B500AF034B19000120FFF703FFBD46F2
:1037700080BDC046FFFF00000D4885460D480E493C
:103780000E4A002302E0D458C4500433C4188C42BB
:10379000F9D30B4A0B4C002301E013600432A24220
:1037A000FBD3FDF7C5FB00F027F8FDF751FFFEE75F
:1037B00000100020000000206C000020A83B000842
:1037C0006C00002004030020FEE710B500F004F8B0
:1037D00010B5804700F008F8024B10B51868FFF7E5
:1037E000F7FFC0460400002010B5062000F05AF88C
:1037F000012000F087F8000070B500260C4D0D4C3C
:10380000641BA410A64209D1002600F07DF80A4DE1
:103810000A4C641BA410A64205D170BDB300EB583E
:1038200098470136EEE7B300EB5898470136F2E7C8
:103830009C3B00089C3B00089C3B0008A43B000804
:1038400003001218934200D1704719700133F9E751
:1038500070B504000D001F2904D916230360012050
:10386000404270BD436C002B04D08A009B181A683C
:10387000002A08D1200000F031F82A0001002000C1
:1038800000F01AF8EDE70020012AEAD0511C03D11C
:10389000162301302360E4E7002428001C609047D1
:1038A0002000DEE710B5034B01001868FFF7D0FFDA
:1038B00010BDC04608000020002370B5064C05006E
:1038C00008001100236000F015F8431C03D12368A1
:1038D000002B00D02B6070BD0003002010B500F05D
:1038E00001F810BD58220120014B40421A60704778
:1038F0000003002058220120014B40421A6070470B
:1039000000030020FEE7C046F8B5C046F8BC08BC7E
:103910009E467047F8B5C046F8BC08BC9E46704746
:1039200000C1814001C0804101C0804100C181408F
:1039300001C0804100C1814000C1814001C080417F
:1039400001C0804100C1814000C1814001C080416F
:1039500000C1814001C0804101C0804100C181405F
:1039600001C0804100C1814000C1814001C080414F
:1039700000C1814001C0804101C0804100C181403F
:1039800000C1814001C0804101C0804100C181402F
:1039900001C0804100C1814000C1814001C080411F
:1039A00001C0804100C1814000C1814001C080410F
:1039B00000C1814001C0804101C0804100C18140FF
:1039C00000C1814001C0804101C0804100C18140EF
:1039D00001C0804100C1814000C1814001C08041DF
:1039E00000C1814001C0804101C0804100C18140CF
:1039F00001C0804100C1814000C1814001C08041BF
:103A000001C0804100C1814000C1814001C08041AE
:103A100000C1814001C0804101C0804100C181409E
:103A200000C0C101C30302C2C60607C705C5C4045E
:103A3000CC0C0DCD0FCFCE0E0ACACB0BC90908C8CE
:103A4000D81819D91BDBDA1A1EDEDF1FDD1D1CDCBE
:103A500014D4D515D71716D6D21213D311D1D0102E
:103A6000F03031F133F3F23236F6F737F53534F41E
:103A70003CFCFD3DFF3F3EFEFA3A3BFB39F9F8388E
:103A800028E8E929EB2B2AEAEE2E2FEF2DEDEC2C7E
:103A9000E42425E527E7E62622E2E323E12120E0EE
:103AA000A06061A163A3A26266A6A767A56564A4DE
:103AB0006CACAD6DAF6F6EAEAA6A6BAB69A9A8684E
:103AC00078B8B979BB7B7ABABE7E7FBF7DBDBC7C3E
:103AD000B47475B577B7B67672B2B373B17170B0AE
:103AE000509091519353529296565797559594549E
:103AF0009C5C5D9D5F9F9E5E5A9A9B5B995958980E
:103B0000884849894B8B8A4A4E8E8F4F8D4D4C8CFD
:103B1000448485458747468682424383418180406D
:103B2000D40A0008EA0A0008000B0008160B000877
:103B30002C0B0008420B0008580B00086E0B000805
:103B40004E150008701500088E150008A415000811
:103B5000D41500080000000000000000F93500083E
:103B60000000000000000000133600080000000004
:103B7000000000002D3600080000000000000000DA
:103B8000CB3700080000000000000000CB37000821
:0C3B90000000000000000000CB3700081F
:083B9C00E90000086137000890
:043BA400C100000854
:103BA80021020008E93700080C000020000000008E
:103BB80000000000000000000000000000000000FD
:103BC80000000000000000000000000000000000ED
:103BD80000000000000000000000000000000000DD
:103BE80000000000000000000000000000000000CD
:103BF80000000000000000000000000000000000BD
:0C3C0800000000000000000000000000B0
:04000005080037793F
:00000001FF
